{"address":"0x63642c00998abf49D661f78930a3F29Dd07baf6B","bytecode":"0x60c06040523480156200001157600080fd5b506040516200207e3803806200207e8339810160408190526200003491620001b4565b6040518060400160405280600b81526020016a13195b9908151a58dad95d60aa1b815250604051806040016040528060048152602001631313911560e21b81525083838383816000908051906020019062000091929190620000c7565b508051620000a7906001906020840190620000c7565b5050506001600160a01b039182166080521660a052506200023e92505050565b828054620000d5906200020d565b90600052602060002090601f016020900481019282620000f9576000855562000144565b82601f106200011457805160ff191683800117855562000144565b8280016001018555821562000144579182015b828111156200014457825182559160200191906001019062000127565b506200015292915062000156565b5090565b5b8082111562000152576000815560010162000157565b60006001600160a01b0382165b92915050565b60006200017a826200016d565b620001988162000180565b8114620001a457600080fd5b50565b80516200017a816200018d565b60008060408385031215620001cc57620001cc600080fd5b6000620001da8585620001a7565b9250506020620001ed85828601620001a7565b9150509250929050565b634e487b7160e01b600052602260045260246000fd5b6002810460018216806200022257607f821691505b60208210811415620002385762000238620001f7565b50919050565b60805160a051611dfe62000280600039600081816101df0152610a130152600081816101630152818161066a015281816108cf0152610a400152611dfe6000f3fe608060405234801561001057600080fd5b506004361061011b5760003560e01c806342842e0e116100b2578063a22cb46511610081578063b88d4fde11610066578063b88d4fde14610288578063c87b56dd1461029b578063e985e9c5146102ae57600080fd5b8063a22cb46514610262578063a236897a1461027557600080fd5b806342842e0e146102145780636352211e1461022757806370a082311461023a57806395d89b411461025a57600080fd5b8063095ea7b3116100ee578063095ea7b3146101b257806323b872dd146101c7578063303e74df146101da57806340c10f191461020157600080fd5b806301ffc9a71461012057806306fdde03146101495780630793e9c81461015e578063081812fc14610192575b600080fd5b61013361012e3660046111c9565b6102f7565b60405161014091906111f4565b60405180910390f35b6101516103dc565b604051610140919061127e565b6101857f000000000000000000000000000000000000000000000000000000000000000081565b60405161014091906112d3565b6101a56101a03660046112f2565b61046e565b604051610140919061131c565b6101c56101c036600461133e565b6104fb565b005b6101c56101d536600461137b565b610607565b6101857f000000000000000000000000000000000000000000000000000000000000000081565b6101c561020f36600461133e565b610652565b6101c561022236600461137b565b6106cf565b6101a56102353660046112f2565b6106ea565b61024d6102483660046113cb565b610746565b60405161014091906113f2565b6101516107be565b6101c5610270366004611413565b6107cd565b6101c561028336600461137b565b6108b7565b6101c5610296366004611596565b610926565b6101516102a93660046112f2565b610978565b6101336102bc366004611615565b73ffffffffffffffffffffffffffffffffffffffff918216600090815260056020908152604080832093909416825291909152205460ff1690565b60007fffffffff0000000000000000000000000000000000000000000000000000000082167f80ac58cd00000000000000000000000000000000000000000000000000000000148061038a57507fffffffff0000000000000000000000000000000000000000000000000000000082167f5b5e139f00000000000000000000000000000000000000000000000000000000145b806103d657507f01ffc9a7000000000000000000000000000000000000000000000000000000007fffffffff000000000000000000000000000000000000000000000000000000008316145b92915050565b6060600080546103eb90611677565b80601f016020809104026020016040519081016040528092919081815260200182805461041790611677565b80156104645780601f1061043957610100808354040283529160200191610464565b820191906000526020600020905b81548152906001019060200180831161044757829003601f168201915b5050505050905090565b60008181526002602052604081205473ffffffffffffffffffffffffffffffffffffffff166104d2576040517f08c379a00000000000000000000000000000000000000000000000000000000081526004016104c9906116fe565b60405180910390fd5b5060009081526004602052604090205473ffffffffffffffffffffffffffffffffffffffff1690565b6000610506826106ea565b90508073ffffffffffffffffffffffffffffffffffffffff168373ffffffffffffffffffffffffffffffffffffffff16141561056e576040517f08c379a00000000000000000000000000000000000000000000000000000000081526004016104c990611766565b3373ffffffffffffffffffffffffffffffffffffffff821614806105c2575073ffffffffffffffffffffffffffffffffffffffff8116600090815260056020908152604080832033845290915290205460ff165b6105f8576040517f08c379a00000000000000000000000000000000000000000000000000000000081526004016104c9906117ce565b6106028383610acd565b505050565b6106113382610b6d565b610647576040517f08c379a00000000000000000000000000000000000000000000000000000000081526004016104c990611836565b610602838383610c87565b3373ffffffffffffffffffffffffffffffffffffffff7f000000000000000000000000000000000000000000000000000000000000000016146106c1576040517f08c379a00000000000000000000000000000000000000000000000000000000081526004016104c99061189e565b6106cb8282610e43565b5050565b61060283838360405180602001604052806000815250610926565b60008181526002602052604081205473ffffffffffffffffffffffffffffffffffffffff16806103d6576040517f08c379a00000000000000000000000000000000000000000000000000000000081526004016104c990611906565b600073ffffffffffffffffffffffffffffffffffffffff8216610795576040517f08c379a00000000000000000000000000000000000000000000000000000000081526004016104c99061196e565b5073ffffffffffffffffffffffffffffffffffffffff1660009081526003602052604090205490565b6060600180546103eb90611677565b73ffffffffffffffffffffffffffffffffffffffff821633141561081d576040517f08c379a00000000000000000000000000000000000000000000000000000000081526004016104c9906119b2565b33600081815260056020908152604080832073ffffffffffffffffffffffffffffffffffffffff871680855292529182902080547fffffffffffffffffffffffffffffffffffffffffffffffffffffffffffffff001685151517905590519091907f17307eab39ab6107e8899845ad3d59bd9653f200f220920489ca2b5937696c31906108ab9085906111f4565b60405180910390a35050565b3373ffffffffffffffffffffffffffffffffffffffff7f00000000000000000000000000000000000000000000000000000000000000001614610647576040517f08c379a00000000000000000000000000000000000000000000000000000000081526004016104c99061189e565b6109303383610b6d565b610966576040517f08c379a00000000000000000000000000000000000000000000000000000000081526004016104c990611836565b61097284848484610fa5565b50505050565b60008181526002602052604090205460609073ffffffffffffffffffffffffffffffffffffffff166109d6576040517f08c379a00000000000000000000000000000000000000000000000000000000081526004016104c990611a1a565b6040517f28205a9300000000000000000000000000000000000000000000000000000000815273ffffffffffffffffffffffffffffffffffffffff7f000000000000000000000000000000000000000000000000000000000000000016906328205a9390610a6a907f0000000000000000000000000000000000000000000000000000000000000000908690600401611a2a565b600060405180830381865afa158015610a87573d6000803e3d6000fd5b505050506040513d6000823e601f3d9081017fffffffffffffffffffffffffffffffffffffffffffffffffffffffffffffffe01682016040526103d69190810190611a9d565b600081815260046020526040902080547fffffffffffffffffffffffff00000000000000000000000000000000000000001673ffffffffffffffffffffffffffffffffffffffff84169081179091558190610b27826106ea565b73ffffffffffffffffffffffffffffffffffffffff167f8c5be1e5ebec7d5bd14f71427d1e84f3dd0314c0f7b2291e5b200ac8c7c3b92560405160405180910390a45050565b60008181526002602052604081205473ffffffffffffffffffffffffffffffffffffffff16610bc8576040517f08c379a00000000000000000000000000000000000000000000000000000000081526004016104c990611b30565b6000610bd3836106ea565b90508073ffffffffffffffffffffffffffffffffffffffff168473ffffffffffffffffffffffffffffffffffffffff161480610c4257508373ffffffffffffffffffffffffffffffffffffffff16610c2a8461046e565b73ffffffffffffffffffffffffffffffffffffffff16145b80610c7f575073ffffffffffffffffffffffffffffffffffffffff80821660009081526005602090815260408083209388168352929052205460ff165b949350505050565b8273ffffffffffffffffffffffffffffffffffffffff16610ca7826106ea565b73ffffffffffffffffffffffffffffffffffffffff1614610cf4576040517f08c379a00000000000000000000000000000000000000000000000000000000081526004016104c990611b98565b73ffffffffffffffffffffffffffffffffffffffff8216610d41576040517f08c379a00000000000000000000000000000000000000000000000000000000081526004016104c990611c00565b610d4c600082610acd565b73ffffffffffffffffffffffffffffffffffffffff83166000908152600360205260408120805460019290610d82908490611c3f565b909155505073ffffffffffffffffffffffffffffffffffffffff82166000908152600360205260408120805460019290610dbd908490611c56565b909155505060008181526002602052604080822080547fffffffffffffffffffffffff00000000000000000000000000000000000000001673ffffffffffffffffffffffffffffffffffffffff86811691821790925591518493918716917fddf252ad1be2c89b69c2b068fc378daa952ba7f163c4a11628f55a4df523b3ef91a4505050565b73ffffffffffffffffffffffffffffffffffffffff8216610e90576040517f08c379a00000000000000000000000000000000000000000000000000000000081526004016104c990611c9e565b60008181526002602052604090205473ffffffffffffffffffffffffffffffffffffffff1615610eec576040517f08c379a00000000000000000000000000000000000000000000000000000000081526004016104c990611ce0565b73ffffffffffffffffffffffffffffffffffffffff82166000908152600360205260408120805460019290610f22908490611c56565b909155505060008181526002602052604080822080547fffffffffffffffffffffffff00000000000000000000000000000000000000001673ffffffffffffffffffffffffffffffffffffffff861690811790915590518392907fddf252ad1be2c89b69c2b068fc378daa952ba7f163c4a11628f55a4df523b3ef908290a45050565b610fb0848484610c87565b610fbc84848484610ff2565b610972576040517f08c379a00000000000000000000000000000000000000000000000000000000081526004016104c990611d48565b600073ffffffffffffffffffffffffffffffffffffffff84163b15611181576040517f150b7a0200000000000000000000000000000000000000000000000000000000815273ffffffffffffffffffffffffffffffffffffffff85169063150b7a0290611069903390899088908890600401611d58565b6020604051808303816000875af19250505080156110c2575060408051601f3d9081017fffffffffffffffffffffffffffffffffffffffffffffffffffffffffffffffe01682019092526110bf91810190611da7565b60015b611136573d8080156110f0576040519150601f19603f3d011682016040523d82523d6000602084013e6110f5565b606091505b50805161112e576040517f08c379a00000000000000000000000000000000000000000000000000000000081526004016104c990611d48565b805181602001fd5b7fffffffff00000000000000000000000000000000000000000000000000000000167f150b7a0200000000000000000000000000000000000000000000000000000000149050610c7f565b506001949350505050565b7fffffffff0000000000000000000000000000000000000000000000000000000081165b81146111bb57600080fd5b50565b80356103d68161118c565b6000602082840312156111de576111de600080fd5b6000610c7f84846111be565b8015155b82525050565b602081016103d682846111ea565b60005b8381101561121d578181015183820152602001611205565b838111156109725750506000910152565b6000611238825190565b80845260208401935061124f818560208601611202565b601f017fffffffffffffffffffffffffffffffffffffffffffffffffffffffffffffffe0169290920192915050565b6020808252810161128f818461122e565b9392505050565b600073ffffffffffffffffffffffffffffffffffffffff82166103d6565b60006103d682611296565b60006103d6826112b4565b6111ee816112bf565b602081016103d682846112ca565b806111b0565b80356103d6816112e1565b60006020828403121561130757611307600080fd5b6000610c7f84846112e7565b6111ee81611296565b602081016103d68284611313565b6111b081611296565b80356103d68161132a565b6000806040838503121561135457611354600080fd5b60006113608585611333565b9250506020611371858286016112e7565b9150509250929050565b60008060006060848603121561139357611393600080fd5b600061139f8686611333565b93505060206113b086828701611333565b92505060406113c1868287016112e7565b9150509250925092565b6000602082840312156113e0576113e0600080fd5b6000610c7f8484611333565b806111ee565b602081016103d682846113ec565b8015156111b0565b80356103d681611400565b6000806040838503121561142957611429600080fd5b60006114358585611333565b925050602061137185828601611408565b7f4e487b7100000000000000000000000000000000000000000000000000000000600052604160045260246000fd5b7fffffffffffffffffffffffffffffffffffffffffffffffffffffffffffffffe0601f830116810181811067ffffffffffffffff821117156114b9576114b9611446565b6040525050565b60006114cb60405190565b90506114d78282611475565b919050565b600067ffffffffffffffff8211156114f6576114f6611446565b7fffffffffffffffffffffffffffffffffffffffffffffffffffffffffffffffe0601f83011660200192915050565b82818337506000910152565b600061154461153f846114dc565b6114c0565b90508281526020810184848401111561155f5761155f600080fd5b61156a848285611525565b509392505050565b600082601f83011261158657611586600080fd5b8135610c7f848260208601611531565b600080600080608085870312156115af576115af600080fd5b60006115bb8787611333565b94505060206115cc87828801611333565b93505060406115dd878288016112e7565b925050606085013567ffffffffffffffff8111156115fd576115fd600080fd5b61160987828801611572565b91505092959194509250565b6000806040838503121561162b5761162b600080fd5b60006116378585611333565b925050602061137185828601611333565b7f4e487b7100000000000000000000000000000000000000000000000000000000600052602260045260246000fd5b60028104600182168061168b57607f821691505b6020821081141561169e5761169e611648565b50919050565b602c8152602081017f4552433732313a20617070726f76656420717565727920666f72206e6f6e657881527f697374656e7420746f6b656e0000000000000000000000000000000000000000602082015290505b60400190565b602080825281016103d6816116a4565b60218152602081017f4552433732313a20617070726f76616c20746f2063757272656e74206f776e6581527f7200000000000000000000000000000000000000000000000000000000000000602082015290506116f8565b602080825281016103d68161170e565b60388152602081017f4552433732313a20617070726f76652063616c6c6572206973206e6f74206f7781527f6e6572206e6f7220617070726f76656420666f7220616c6c0000000000000000602082015290506116f8565b602080825281016103d681611776565b60318152602081017f4552433732313a207472616e736665722063616c6c6572206973206e6f74206f81527f776e6572206e6f7220617070726f766564000000000000000000000000000000602082015290506116f8565b602080825281016103d6816117de565b60248152602081017f4e46544c6f616e5469636b65743a206f6e6c79206c6f616e20666163696c697481527f61746f7200000000000000000000000000000000000000000000000000000000602082015290506116f8565b602080825281016103d681611846565b60298152602081017f4552433732313a206f776e657220717565727920666f72206e6f6e657869737481527f656e7420746f6b656e0000000000000000000000000000000000000000000000602082015290506116f8565b602080825281016103d6816118ae565b602a8152602081017f4552433732313a2062616c616e636520717565727920666f7220746865207a6581527f726f206164647265737300000000000000000000000000000000000000000000602082015290506116f8565b602080825281016103d681611916565b60198152602081017f4552433732313a20617070726f766520746f2063616c6c657200000000000000815290505b60200190565b602080825281016103d68161197e565b602e8152602081017f4e46544c6f616e5469636b65743a2055524920717565727920666f72206e6f6e81527f6578697374656e7420746f6b656e000000000000000000000000000000000000602082015290506116f8565b602080825281016103d6816119c2565b60408101611a3882856112ca565b61128f60208301846113ec565b6000611a5361153f846114dc565b905082815260208101848484011115611a6e57611a6e600080fd5b61156a848285611202565b600082601f830112611a8d57611a8d600080fd5b8151610c7f848260208601611a45565b600060208284031215611ab257611ab2600080fd5b815167ffffffffffffffff811115611acc57611acc600080fd5b610c7f84828501611a79565b602c8152602081017f4552433732313a206f70657261746f7220717565727920666f72206e6f6e657881527f697374656e7420746f6b656e0000000000000000000000000000000000000000602082015290506116f8565b602080825281016103d681611ad8565b60298152602081017f4552433732313a207472616e73666572206f6620746f6b656e2074686174206981527f73206e6f74206f776e0000000000000000000000000000000000000000000000602082015290506116f8565b602080825281016103d681611b40565b60248152602081017f4552433732313a207472616e7366657220746f20746865207a65726f2061646481527f7265737300000000000000000000000000000000000000000000000000000000602082015290506116f8565b602080825281016103d681611ba8565b7f4e487b7100000000000000000000000000000000000000000000000000000000600052601160045260246000fd5b600082821015611c5157611c51611c10565b500390565b60008219821115611c6957611c69611c10565b500190565b60208082527f4552433732313a206d696e7420746f20746865207a65726f206164647265737391019081526119ac565b602080825281016103d681611c6e565b601c8152602081017f4552433732313a20746f6b656e20616c7265616479206d696e74656400000000815290506119ac565b602080825281016103d681611cae565b60328152602081017f4552433732313a207472616e7366657220746f206e6f6e20455243373231526581527f63656976657220696d706c656d656e7465720000000000000000000000000000602082015290506116f8565b602080825281016103d681611cf0565b60808101611d668287611313565b611d736020830186611313565b611d8060408301856113ec565b8181036060830152611d92818461122e565b9695505050505050565b80516103d68161118c565b600060208284031215611dbc57611dbc600080fd5b6000610c7f8484611d9c56fea2646970667358221220cefdd227698639c773275225a6d7c8daa539bd0a30f12889dde52f26e89e29cf64736f6c634300080a0033","abi":[{"inputs":[{"internalType":"contract NFTLoanFacilitator","name":"_nftLoanFacilitator","type":"address"},{"internalType":"contract NFTLoansTicketDescriptor","name":"_descriptor","type":"address"}],"stateMutability":"nonpayable","type":"constructor"},{"anonymous":false,"inputs":[{"indexed":true,"internalType":"address","name":"owner","type":"address"},{"indexed":true,"internalType":"address","name":"approved","type":"address"},{"indexed":true,"internalType":"uint256","name":"tokenId","type":"uint256"}],"name":"Approval","type":"event"},{"anonymous":false,"inputs":[{"indexed":true,"internalType":"address","name":"owner","type":"address"},{"indexed":true,"internalType":"address","name":"operator","type":"address"},{"indexed":false,"internalType":"bool","name":"approved","type":"bool"}],"name":"ApprovalForAll","type":"event"},{"anonymous":false,"inputs":[{"indexed":true,"internalType":"address","name":"from","type":"address"},{"indexed":true,"internalType":"address","name":"to","type":"address"},{"indexed":true,"internalType":"uint256","name":"tokenId","type":"uint256"}],"name":"Transfer","type":"event"},{"inputs":[{"internalType":"address","name":"to","type":"address"},{"internalType":"uint256","name":"tokenId","type":"uint256"}],"name":"approve","outputs":[],"stateMutability":"nonpayable","type":"function"},{"inputs":[{"internalType":"address","name":"owner","type":"address"}],"name":"balanceOf","outputs":[{"internalType":"uint256","name":"","type":"uint256"}],"stateMutability":"view","type":"function"},{"inputs":[],"name":"descriptor","outputs":[{"internalType":"contract NFTLoansTicketDescriptor","name":"","type":"address"}],"stateMutability":"view","type":"function"},{"inputs":[{"internalType":"uint256","name":"tokenId","type":"uint256"}],"name":"getApproved","outputs":[{"internalType":"address","name":"","type":"address"}],"stateMutability":"view","type":"function"},{"inputs":[{"internalType":"address","name":"owner","type":"address"},{"internalType":"address","name":"operator","type":"address"}],"name":"isApprovedForAll","outputs":[{"internalType":"bool","name":"","type":"bool"}],"stateMutability":"view","type":"function"},{"inputs":[{"internalType":"address","name":"from","type":"address"},{"internalType":"address","name":"to","type":"address"},{"internalType":"uint256","name":"loanId","type":"uint256"}],"name":"loanFacilitatorTransfer","outputs":[],"stateMutability":"nonpayable","type":"function"},{"inputs":[{"internalType":"address","name":"to","type":"address"},{"internalType":"uint256","name":"tokenId","type":"uint256"}],"name":"mint","outputs":[],"stateMutability":"nonpayable","type":"function"},{"inputs":[],"name":"name","outputs":[{"internalType":"string","name":"","type":"string"}],"stateMutability":"view","type":"function"},{"inputs":[],"name":"nftLoanFacilitator","outputs":[{"internalType":"contract NFTLoanFacilitator","name":"","type":"address"}],"stateMutability":"view","type":"function"},{"inputs":[{"internalType":"uint256","name":"tokenId","type":"uint256"}],"name":"ownerOf","outputs":[{"internalType":"address","name":"","type":"address"}],"stateMutability":"view","type":"function"},{"inputs":[{"internalType":"address","name":"from","type":"address"},{"internalType":"address","name":"to","type":"address"},{"internalType":"uint256","name":"tokenId","type":"uint256"}],"name":"safeTransferFrom","outputs":[],"stateMutability":"nonpayable","type":"function"},{"inputs":[{"internalType":"address","name":"from","type":"address"},{"internalType":"address","name":"to","type":"address"},{"internalType":"uint256","name":"tokenId","type":"uint256"},{"internalType":"bytes","name":"_data","type":"bytes"}],"name":"safeTransferFrom","outputs":[],"stateMutability":"nonpayable","type":"function"},{"inputs":[{"internalType":"address","name":"operator","type":"address"},{"internalType":"bool","name":"approved","type":"bool"}],"name":"setApprovalForAll","outputs":[],"stateMutability":"nonpayable","type":"function"},{"inputs":[{"internalType":"bytes4","name":"interfaceId","type":"bytes4"}],"name":"supportsInterface","outputs":[{"internalType":"bool","name":"","type":"bool"}],"stateMutability":"view","type":"function"},{"inputs":[],"name":"symbol","outputs":[{"internalType":"string","name":"","type":"string"}],"stateMutability":"view","type":"function"},{"inputs":[{"internalType":"uint256","name":"tokenId","type":"uint256"}],"name":"tokenURI","outputs":[{"internalType":"string","name":"","type":"string"}],"stateMutability":"view","type":"function"},{"inputs":[{"internalType":"address","name":"from","type":"address"},{"internalType":"address","name":"to","type":"address"},{"internalType":"uint256","name":"tokenId","type":"uint256"}],"name":"transferFrom","outputs":[],"stateMutability":"nonpayable","type":"function"}]}